{
  "_format": "hh-sol-artifact-1",
  "contractName": "MerkleTree",
  "sourceName": "contracts/MerkleTree.sol",
  "abi": [
    {
      "inputs": [],
      "stateMutability": "nonpayable",
      "type": "constructor"
    },
    {
      "inputs": [
        {
          "internalType": "uint256",
          "name": "",
          "type": "uint256"
        }
      ],
      "name": "hashes",
      "outputs": [
        {
          "internalType": "uint256",
          "name": "",
          "type": "uint256"
        }
      ],
      "stateMutability": "view",
      "type": "function"
    },
    {
      "inputs": [],
      "name": "index",
      "outputs": [
        {
          "internalType": "uint256",
          "name": "",
          "type": "uint256"
        }
      ],
      "stateMutability": "view",
      "type": "function"
    },
    {
      "inputs": [
        {
          "internalType": "uint256",
          "name": "hashedLeaf",
          "type": "uint256"
        }
      ],
      "name": "insertLeaf",
      "outputs": [
        {
          "internalType": "uint256",
          "name": "",
          "type": "uint256"
        }
      ],
      "stateMutability": "nonpayable",
      "type": "function"
    },
    {
      "inputs": [],
      "name": "root",
      "outputs": [
        {
          "internalType": "uint256",
          "name": "",
          "type": "uint256"
        }
      ],
      "stateMutability": "view",
      "type": "function"
    },
    {
      "inputs": [
        {
          "internalType": "uint256[2]",
          "name": "a",
          "type": "uint256[2]"
        },
        {
          "internalType": "uint256[2][2]",
          "name": "b",
          "type": "uint256[2][2]"
        },
        {
          "internalType": "uint256[2]",
          "name": "c",
          "type": "uint256[2]"
        },
        {
          "internalType": "uint256[1]",
          "name": "input",
          "type": "uint256[1]"
        }
      ],
      "name": "verify",
      "outputs": [
        {
          "internalType": "bool",
          "name": "",
          "type": "bool"
        }
      ],
      "stateMutability": "view",
      "type": "function"
    },
    {
      "inputs": [
        {
          "internalType": "uint256[2]",
          "name": "_pA",
          "type": "uint256[2]"
        },
        {
          "internalType": "uint256[2][2]",
          "name": "_pB",
          "type": "uint256[2][2]"
        },
        {
          "internalType": "uint256[2]",
          "name": "_pC",
          "type": "uint256[2]"
        },
        {
          "internalType": "uint256[1]",
          "name": "_pubSignals",
          "type": "uint256[1]"
        }
      ],
      "name": "verifyProof",
      "outputs": [
        {
          "internalType": "bool",
          "name": "",
          "type": "bool"
        }
      ],
      "stateMutability": "view",
      "type": "function"
    }
  ],
  "bytecode": "0x608060405260006001553480156200001657600080fd5b50600f67ffffffffffffffff81111562000059577f4e487b7100000000000000000000000000000000000000000000000000000000600052604160045260246000fd5b604051908082528060200260200182016040528015620000885781602001602082028036833780820191505090505b5060009080519060200190620000a0929190620002d8565b50620000b1620000b760201b60201c565b620005a1565b6000600890505b600f811015620002885773__$86e0c54df1042e28bf2dd20ccf184dc428$__6329a5f2f660405180604001604052806000601086600262000100919062000464565b6200010c9190620004c5565b8154811062000144577f4e487b7100000000000000000000000000000000000000000000000000000000600052603260045260246000fd5b906000526020600020015481526020016000600f86600262000167919062000464565b620001739190620004c5565b81548110620001ab577f4e487b7100000000000000000000000000000000000000000000000000000000600052603260045260246000fd5b90600052602060002001548152506040518263ffffffff1660e01b8152600401620001d791906200041a565b60206040518083038186803b158015620001f057600080fd5b505af415801562000205573d6000803e3d6000fd5b505050506040513d601f19601f820116820180604052508101906200022b919062000360565b6000828154811062000266577f4e487b7100000000000000000000000000000000000000000000000000000000600052603260045260246000fd5b90600052602060002001819055508062000280906200050a565b9050620000be565b506000600e81548110620002c5577f4e487b7100000000000000000000000000000000000000000000000000000000600052603260045260246000fd5b9060005260206000200154600281905550565b82805482825590600052602060002090810192821562000317579160200282015b8281111562000316578251825591602001919060010190620002f9565b5b5090506200032691906200032a565b5090565b5b80821115620003455760008160009055506001016200032b565b5090565b6000815190506200035a8162000587565b92915050565b6000602082840312156200037357600080fd5b6000620003838482850162000349565b91505092915050565b60006200039a838362000409565b60208301905092915050565b620003b18162000441565b620003bd818462000459565b9250620003ca8262000437565b8060005b8381101562000401578151620003e587826200038c565b9650620003f2836200044c565b925050600181019050620003ce565b505050505050565b620004148162000500565b82525050565b6000604082019050620004316000830184620003a6565b92915050565b6000819050919050565b600060029050919050565b6000602082019050919050565b600081905092915050565b6000620004718262000500565b91506200047e8362000500565b9250817fffffffffffffffffffffffffffffffffffffffffffffffffffffffffffffffff0483118215151615620004ba57620004b962000558565b5b828202905092915050565b6000620004d28262000500565b9150620004df8362000500565b925082821015620004f557620004f462000558565b5b828203905092915050565b6000819050919050565b6000620005178262000500565b91507fffffffffffffffffffffffffffffffffffffffffffffffffffffffffffffffff8214156200054d576200054c62000558565b5b600182019050919050565b7f4e487b7100000000000000000000000000000000000000000000000000000000600052601160045260246000fd5b620005928162000500565b81146200059e57600080fd5b50565b610e1980620005b16000396000f3fe608060405234801561001057600080fd5b50600436106100625760003560e01c80632986c0e5146100675780632fa8ea6d1461008557806343753b4d146100b5578063501895ae146100e5578063b720243414610115578063ebf0c71714610145575b600080fd5b61006f610163565b60405161007c9190610bdf565b60405180910390f35b61009f600480360381019061009a91906109d0565b610169565b6040516100ac9190610b84565b60405180910390f35b6100cf60048036038101906100ca91906109d0565b610203565b6040516100dc9190610b84565b60405180910390f35b6100ff60048036038101906100fa9190610a35565b61065f565b60405161010c9190610bdf565b60405180910390f35b61012f600480360381019061012a9190610a35565b610683565b60405161013c9190610bdf565b60405180910390f35b61014d61073b565b60405161015a9190610bdf565b60405180910390f35b60015481565b6000816000600181106101a5577f4e487b7100000000000000000000000000000000000000000000000000000000600052603260045260246000fd5b6020020135600254146101ed576040517f08c379a00000000000000000000000000000000000000000000000000000000081526004016101e490610b9f565b60405180910390fd5b6101f985858585610203565b9050949350505050565b6000610630565b7f30644e72e131a029b85045b68181585d2833e84879b9709143e1f593f0000001811061023b576000805260206000f35b50565b600060405183815284602082015285604082015260408160608360076107d05a03fa915081610271576000805260206000f35b825160408201526020830151606082015260408360808360066107d05a03fa9150816102a1576000805260206000f35b505050505050565b600060808601600087017f1c3fbe9cc077e2146c450ef5da6d9d262340bd070c06fb43a34221177e0e708981527f08104f6c893565461787444a4ca1221d58316925aa956dab33c5ee2fb5123dde602082015261034c60008801357f088e950fab8abef1befab4255753655bd478616cfaf15dbe228841f3544c69177f1a40c62820885ed4a9191c9aff5c85b2e15774b0c29b23cedb58e61ceca28e338461023e565b833582527f30644e72e131a029b85045b68181585d97816a916871ca8d3c208c16d87cfd4760208501357f30644e72e131a029b85045b68181585d97816a916871ca8d3c208c16d87cfd4703066020830152843560408301526020850135606083015260408501356080830152606085013560a08301527f2d4d9aa7e302d9df41749d5507949d05dbea33fbb16c643b22f599a2be6df2e260c08301527f14bedd503c37ceb061d8ec60209fe345ce89830a19230301f076caff004d192660e08301527f0967032fcbf776d1afc985f88877f182d38480a653f2decaa9794cbc3bf3060c6101008301527f0e187847ad4c798374d0d6732bf501847dd68bc0e071241e0213bc7fc13db7ab6101208301527f304cfbd1e08a704a99f5e847d93f8c3caafddec46b7a0d379da69a4d112346a76101408301527f1739c1b1a457a8c7313123d24d2f9192f896b7c63eea05a9d57f06547ad0cec8610160830152600088015161018083015260206000018801516101a08301527f198e9393920d483a7260bfb731fb5d25f1aa493335a9e71297e485b7aef312c26101c08301527f1800deef121f1e76426a00665e5c4479674322d4f75edadd46debd5cd992f6ed6101e08301527f090689d0585ff075ec9e99ad690c3395bc4b313370b38ef355acdadcd122975b6102008301527f12c85ea5db8c6deb4aab71808dcb408fe3d1e7690c43d37b4ce6cc0166fa7daa610220830152853561024083015260208601356102608301527f14c29fad13d68a808b842fcda7fed2ae7a1aded24920687f57e7d96d332b7e5d6102808301527f1c5673f521f9bb5f4f6ee093ba37b885299e2fc50acec11e249aca3578fed7d26102a08301527f25b1101061231b3d89364dd65b14526224706137a2e6718d76826036deb7ee0c6102c08301527f1bdbddffbaadac2907ff1859f4b99fad26eb85e5a9d5c8c0bd58d9f08ff23bf16102e08301526020826103008460086107d05a03fa82518116935050505095945050505050565b6040516103808101604052610648600084013561020a565b610655818486888a6102a9565b8060005260206000f35b6000818154811061066f57600080fd5b906000526020600020016000915090505481565b60006008600154106106ca576040517f08c379a00000000000000000000000000000000000000000000000000000000081526004016106c190610bbf565b60405180910390fd5b816000600160008154809291906106e090610cdc565b919050558154811061071b577f4e487b7100000000000000000000000000000000000000000000000000000000600052603260045260246000fd5b9060005260206000200181905550610731610741565b6002549050919050565b60025481565b6000600890505b600f8110156108fd5773__$86e0c54df1042e28bf2dd20ccf184dc428$__6329a5f2f66040518060400160405280600060108660026107879190610c38565b6107919190610c92565b815481106107c8577f4e487b7100000000000000000000000000000000000000000000000000000000600052603260045260246000fd5b906000526020600020015481526020016000600f8660026107e99190610c38565b6107f39190610c92565b8154811061082a577f4e487b7100000000000000000000000000000000000000000000000000000000600052603260045260246000fd5b90600052602060002001548152506040518263ffffffff1660e01b81526004016108549190610b69565b60206040518083038186803b15801561086c57600080fd5b505af4158015610880573d6000803e3d6000fd5b505050506040513d601f19601f820116820180604052508101906108a49190610a5e565b600082815481106108de577f4e487b7100000000000000000000000000000000000000000000000000000000600052603260045260246000fd5b9060005260206000200181905550806108f690610cdc565b9050610748565b506000600e81548110610939577f4e487b7100000000000000000000000000000000000000000000000000000000600052603260045260246000fd5b9060005260206000200154600281905550565b60008190508260406002028201111561096457600080fd5b92915050565b60008190508260206001028201111561098257600080fd5b92915050565b6000819050826020600202820111156109a057600080fd5b92915050565b6000813590506109b581610dcc565b92915050565b6000815190506109ca81610dcc565b92915050565b60008060008061012085870312156109e757600080fd5b60006109f587828801610988565b9450506040610a068782880161094c565b93505060c0610a1787828801610988565b925050610100610a298782880161096a565b91505092959194509250565b600060208284031215610a4757600080fd5b6000610a55848285016109a6565b91505092915050565b600060208284031215610a7057600080fd5b6000610a7e848285016109bb565b91505092915050565b6000610a938383610b5a565b60208301905092915050565b610aa881610c04565b610ab28184610c1c565b9250610abd82610bfa565b8060005b83811015610aee578151610ad58782610a87565b9650610ae083610c0f565b925050600181019050610ac1565b505050505050565b610aff81610cc6565b82525050565b6000610b12602683610c27565b9150610b1d82610d54565b604082019050919050565b6000610b35601383610c27565b9150610b4082610da3565b602082019050919050565b610b5481610cd2565b82525050565b610b6381610cd2565b82525050565b6000604082019050610b7e6000830184610a9f565b92915050565b6000602082019050610b996000830184610af6565b92915050565b60006020820190508181036000830152610bb881610b05565b9050919050565b60006020820190508181036000830152610bd881610b28565b9050919050565b6000602082019050610bf46000830184610b4b565b92915050565b6000819050919050565b600060029050919050565b6000602082019050919050565b600081905092915050565b600082825260208201905092915050565b6000610c4382610cd2565b9150610c4e83610cd2565b9250817fffffffffffffffffffffffffffffffffffffffffffffffffffffffffffffffff0483118215151615610c8757610c86610d25565b5b828202905092915050565b6000610c9d82610cd2565b9150610ca883610cd2565b925082821015610cbb57610cba610d25565b5b828203905092915050565b60008115159050919050565b6000819050919050565b6000610ce782610cd2565b91507fffffffffffffffffffffffffffffffffffffffffffffffffffffffffffffffff821415610d1a57610d19610d25565b5b600182019050919050565b7f4e487b7100000000000000000000000000000000000000000000000000000000600052601160045260246000fd5b7f50726f6f6620726f6f7420646f6573206e6f74206d617463682063757272656e60008201527f7420726f6f740000000000000000000000000000000000000000000000000000602082015250565b7f4d65726b6c6520747265652069732066756c6c00000000000000000000000000600082015250565b610dd581610cd2565b8114610de057600080fd5b5056fea26469706673582212209448874571674cc6b942052eb918245329f98f2b1916ac8c208cc764cdc2b95064736f6c63430008040033",
  "linkReferences": {
    "contracts/Poseidon.sol": {
      "PoseidonT3": [
        {
          "length": 20,
          "start": 202
        },
        {
          "length": 20,
          "start": 3332
        }
      ]
    }
  },
  "deployedLinkReferences": {
    "contracts/Poseidon.sol": {
      "PoseidonT3": [
        {
          "length": 20,
          "start": 1875
        }
      ]
    }
  }
}